:060000000A128A11FC2F18
:100D9A0055308312031388000330F2008A30F100C1
:100DAA005530F000F00BD72EF10BD72EF20BD72EC1
:100DBA00DE2EAA308312031388000330F2008A3031
:100DCA00F1005530F000F00BE82EF10BE82EF20B93
:100DDA00E82EEF2E08000F30831203138800033029
:100DEA00F2008A30F1005530F000F00BFA2EF10BC8
:100DFA00FA2EF20BFA2E012FF03083120313880019
:100E0A000330F2008A30F1005530F000F00B0B2F5E
:100E1A00F10B0B2FF20B0B2F122F08000F3083163A
:100E2A0003138600880183120313880183120313B4
:100E3A000618202F212F272F0A128A119C270A12FF
:100E4A008A111B2F86182A2F2B2F312F0A128A114B
:100E5A004A270A128A111B2F0619342F352F3B2FC6
:100E6A000A128A11CD260A128A111B2F86193E2FC1
:100E7A003F2F452F0A128A11F0260A128A111B2FB8
:100E8A0088011B2F0A128A1100280730F30000304C
:100E9A00F4000130F000730A542F0310F00DFF3EE6
:100EAA00031D522F70088312031388040330F200C3
:100EBA008A30F1005530F000F00B612FF10B612FF1
:100ECA00F20B612F682FFF30F3070318F40AFF3083
:100EDA00F407F41F712F722F4E2F0730F5000030E0
:100EEA00F6000130F000750A7C2F0310F00DFF3E6A
:100EFA00031D7A2F7008FF3A831203138805033003
:100F0A00F2008A30F1005530F000F00B8A2FF10B15
:100F1A008A2FF20B8A2F912FFF30F5070318F60A52
:100F2A00FF30F607F61F9A2F9B2F762F0800F30142
:100F3A00F4010130F000730AA42F0310F00DFF3EF4
:100F4A00031DA22F70088312031388040330F200D2
:100F5A008A30F1005530F000F00BB12FF10BB12FB0
:100F6A00F20BB12FB82F0130F3070318F40A00303F
:100F7A00F4077408803AFF0080307F02031DC72FF0
:100F8A0008307302031CCA2FCB2F9E2FF501F601DE
:100F9A000130F000750AD32F0310F00DFF3E031D38
:100FAA00D12F7008FF3A8312031388050330F20029
:100FBA008A30F1005530F000F00BE12FF10BE12FF0
:100FCA00F20BE12FE82F0130F5070318F60A00307B
:100FDA00F6077608803AFF0080307F02031DF72F5C
:100FEA0008307502031CFA2FFB2FCD2F080083014E
:060FFA000A128A11132FF8
:02400E00FB3F76
:00000001FF
